:020000020000FC
:100000000C94EE000C9415020C942A020C940D0230
:0C0054000C947B010C947B010C947B014C
:100100008F939F939FE08CE90197F1F79F918F91D7
:1001100008950F931F93002710E21D93039501315B
:10012000E1F71F910F9108950F93EF93FF9300E86C
:1001300001BB0E948000169A0E94800016980E94BF
:10014000DD00F2E0EBE00027008B25D000EC01BBE6
:100150000E948000169A0E94800016980E94DD007E
:10016000F2E0ECE10027008B16D0FF91EF910F91A8
:1001700008950F930591002361F001BB179A0E9427
:100180008000169A0E948000169817980E94DD0041
:10019000F0DF0F9108950F930191002361F001BBEF
:1001A000179A0E948000169A0E948000169817984D
:1001B0000E94DD00F1CF0F9108950F93002700BB3F
:1001C00001BB159A9DDF169A9BDF0FB1169807FDAC
:1001D000F9CF15980FEF00BB0F91089501E20EBF04
:1001E0000FEF0DBF02E004BD0DE707BD002706BD00
:1001F00007E000936E0001E20093900000E000939E
:10020000710007E00DBB0AE20093690000E00AB943
:1002100000E10DB90FEF00BB01B9002701BB02B926
:10022000B2E0ABE076DFB2E0ACE173DF08E301BB44
:100230000E948000169A0E94800016980E94DD009D
:100240005FDF5EDF5DDF5CDF5BDF5ADF08E301BBA2
:100250000E948000169A0E94800016980E94DD007D
:100260004FDF4EDF08E301BB0E948000169A0E9418
:10027000800016980E94DD0008E301BB0E94800008
:10028000169A0E94800016980E94DD0008E001BBCB
:100290000E948000169A0E94800016980E94DD003D
:1002A00001E001BB0E948000169A0E94800016980F
:1002B0000E94DD0006E001BB0E948000169A0E94A9
:1002C000800016980E94DD000CE001BB0E948000B7
:1002D000169A0E94800016980E94DD0004E00093A8
:1002E000910005E005BD00E000930A0200939A002A
:1002F000C6D07894FFCF8F939F930F938091020283
:1003000090910302019600E08130900719F42AD001
:100310008827992790930302809302028091080214
:1003200090910902019600E08F31900719F440D0B6
:1003300088279927909309028093080280910602EA
:1003400090910702019600E08D37900719F41FD0B5
:100350008827992790930702809306020F919F9117
:100360008F9118953F930F933091040233230FB769
:1003700001FF3A95309304023091050233230FB701
:1003800001FF3A95309305020F913F910895BF9375
:10039000AF930F93B2E0ACE1BCDEB2E0ACE1009110
:1003A00001027CD00E9494000F91AF91BF910895FB
:1003B0001F932F9310910002209101022595120F97
:1003C0001093010220910A022223F1F0211760F01C
:1003D000211B2595259510919A00210F211710F4C6
:1003E0002091FF00122F11C0121788F0211B2095B9
:1003F0002595259510919A00121B20919A0021179E
:1004000010F41091000001C0112710939A001127D9
:10041000109300022F911F9108951F9310910002D5
:100420001395109300021F9118950F9300910402E9
:10043000002371F405E00093040200910A020436DF
:1004400031F01F9314E1010F1F9100930A0217D09E
:100450000F9118950F9300910502002371F405E0A8
:100460000093050200910A02002331F01F9314E16A
:10047000011B1F9100930A0202D00F911895BF93A0
:10048000AF930F93B2E0ABE044DEB2E0ABE006D056
:100490000E9494000F91AF91BF910895BF93AF93C5
:1004A0008F937F9388277727043618F00456839517
:1004B000FBCF882321F0C0968D9371E088270A3006
:1004C00018F00A508395FBCF772311F4882311F09D
:1004D000C0968D93802FC0968C937F918F91AF9112
:0404E000BF9108952B
:00000001FF
