:020000020000FC
:0C0000000C9433000C9432000C9432007D
:10005C000C943A000C943200189501E20EBF0FEF8D
:10006C000DBF0FEF07B940C00FB70F93DF93CF93BE
:10007C009F938F935F93809102029091030201965C
:10008C0084380EE1900721F528B926951795E8F0EC
:10009C00C2E0D2E00027099308838091000290917E
:1000AC0001020196809300029093010250E080318E
:1000BC00950709F791F201C00FC02AEA1BEAC0E0CC
:1000CC00D2E0002709930883D6CF70E8272BE0CF26
:1000DC0080930202909303025F918F919F91CF9135
:1000EC00DF910F910FBF18951FEF18B92AEA1BEA81
:1000FC00C2E0D2E0002709930883C0E0D2E00027D9
:10010C000993088300E004BD02E005BD01E0009303
:06011C006E007894FFCF95
:00000001FF
