:020000020000FC
:0C0000000C941E020C94F5010C94D80125
:10005C000C949B020C94320018950C941E028F93F6
:10006C009F939FE08CE90197F1F79F918F910895F1
:10007C00F6DFF5DFF4DFF3DFF2DF0895F9DFF8DF09
:10008C00F7DFF6DF0895FADFF9DFF8DFF7DFF6DFE9
:10009C000895F9DFF8DFF7DFF6DFF5DF189501BB20
:1000AC00DEDF169ADCDF1698DADF089501BB179AAB
:1000BC00D6DF169AD4DF1698D2DF1798089500274A
:1000CC0000BB01BB159ACBDF169AC9DF0FB116988E
:1000DC0007FDF9CF15980FEF00BB08950F9300ECB7
:1000EC00DEDFEDDF0F9108950F9301E0D8DFE7DF3E
:1000FC000F9108950F9302E0D2DFE1DF0F91089585
:10010C00BF93AF938F937F9388277727043618F08C
:10011C0004568395FBCF882321F0C0968D9371E014
:10012C0088270A3018F00A508395FBCF772311F4F7
:10013C00882311F0C0968D93802FC0968C937F915D
:10014C008F91AF91BF9108950F931F93D3DFC6DFAB
:10015C001F9310E10F9304E1A2DFB1DF0F911A9509
:10016C001130C1F71F9110910B02103061F011305A
:10017C0009F008950FE40F93002F98DFA0DF0F9183
:10018C00B9DF0C94D00003E40F93002F8FDF97DFBF
:10019C000F91B0DF1F910F9108950F930FEF009304
:1001AC009A000F91089500271127222733274427FF
:1001BC0055273FEE1127E0910B02E130D1F31430BB
:1001CC00C1F330930B014FEF4A95F1F740910901C0
:1001DC004F704F3059F021E00027043039F0542F84
:1001EC00522341F00395220F0C94F300330F139517
:1001FC000C94E500133049F00330E9F1402F440F23
:10020C00400F410F4F5F0C947001BF93CF93C0917F
:10021C000202023021F0033051F00C943C01B091F9
:10022C000302B63464F4B25EB09303021FC0B09103
:10023C000302BE3184F0BE51B093030217C0C33623
:10024C00A9F0BC53B25EB0930302B0910202B39515
:10025C00B09302020BC0C03049F0B45CBE51B093F5
:10026C000302B0910202BA95B0930202CF91BF91F2
:10027C0010DF0C94EB021030A1F0113051F10F9300
:10028C0000910102003029F000E0009301020C946F
:10029C005401002700930202009303020F910C9467
:1002AC00EB02EF93E0910102E23069F0E09103027E
:1002BC00E1304CF4E0910202E1302CF4E1E0E09307
:1002CC0002020C946901E2E0E0930102EF910C94BC
:1002DC00EB0240E08F939F93AF93BF938091020208
:1002EC00909103028A30CCF4AAE08A9F802D9A3038
:1002FC002CF0B3959A509A30E4F78B0F9A9F902D6F
:10030C00940F8093020290930302BF91AF919F913F
:10031C008F914427BEDE0C94EB028A508A30ECF7A6
:10032C000C947A010F931F93E5DE1F9310E10F934A
:10033C0004E1B5DEC4DE0F911A951130C1F71F919F
:10034C0000910402003031F0013039F0023041F0FC
:10035C00033049F00DE20C94BA0104EA0C94BA0192
:10036C000CE70C94BA010FE20F93002F9FDEA7DE6F
:10037C000F9100910502013039F010910402139590
:10038C00143059F40C94CF01109104021A951030CA
:10039C0021F410E00C94D30113E0109304021F918C
:1003AC000F910895EFB7EF930F9300E004BB00910A
:1003BC000B02003081F000E000930B02C5DEEE274B
:1003CC00E4BBE0910102E13031F0E03021F0E1E0FA
:1003DC00E093010200C00F91EF91EFBF1895EFB7BA
:1003EC00EF930F9302E004BBEFEFEBB9E091010246
:1003FC00E330A9F000910B020130B1F001E0009361
:10040C000B0200E0009301029FDEE0910102E1305B
:10041C0009F00AC0E2E0E09301020C941A02E0E059
:10042C00E09301020C941A020F91EF91EFBF189513
:10043C004FEF4DBF41E24EBF0F93002700EF0093EB
:10044C000A0100910E02002700930E020F910F93E8
:10045C000FEF00BB01B9002701BB02B90F9308E3F2
:10046C001EDE2DDE0F9104DE0F9308E318DE27DE6F
:10047C000F91F5DD0F9308E312DE21DE0F910F9340
:10048C0008E30DDE1CDE0F910F9308E008DE17DE8B
:10049C000F910F9301E003DE12DE0F910F9306E034
:1004AC00FEDD0DDE0F910F930EE0F9DD08DE0F91EE
:1004BC000F91E0936900EDB3E160EDBBE2E0E093F6
:1004CC006900EDB3E260EDBB0FEF03BB0F93C9E026
:1004DC00D2E000E0099308830F910F93C7E0D2E0BC
:1004EC0000E0099308830F910F93C4E0D2E000E081
:1004FC00099308830F9100E004BD02E005BD01E003
:10050C0000936E00002711272227332744275527F5
:10051C006627772788279927AA27BB27CC27DD278B
:10052C00EE27FF2778940C94D9000FB70F93DF9325
:10053C00CF939F938F938091090290910A02019619
:10054C0084380EE19007B1F500910102023099F068
:10055C0040D023DE0F93C9E0D2E000E0099308837A
:10056C000F918091070290910802019680930702E7
:10057C009093080223C01F9310910302103029F0AE
:10058C001150109303020C94DB02109102021030F4
:10059C0041F01150109302021BE3109303020C94D0
:1005AC00DB021091030010930102A2D0BBDE1F915D
:1005BC000C94B0028093090290930A028F919F9140
:1005CC00CF91DF910F910FBF18958EDD02D00C9457
:1005DC00DF000F931F93109101021030D1F01130F6
:1005EC0079F0123019F027D00C941D0381D076DDF0
:1005FC0002E70F93002F5ADD62DD0F910C941D035F
:10060C006DDD00E70F93002F51DD59DD0F910C9438
:10061C001D036ED063DD04E40F93002F47DD4FDD27
:10062C000F9106E30F93002F41DD49DD0F918CDD17
:10063C001F910F91089558DD04E40F93002F36DDC0
:10064C003EDD0F910FE60F93002F30DD38DD0F915B
:10065C000EE60F93002F2ADD32DD0F9105E60F9386
:10066C00002F24DD2CDD0F9139DD02E50F93002FD7
:10067C001DDD25DD0F9105E60F93002F17DD1FDD26
:10068C000F910DE60F93002F11DD19DD0F910FE681
:10069C000F93002F0BDD13DD0F9106E70F93002F47
:1006AC0005DD0DDD0F9105E60F93002FFFDC07DD57
:1006BC000F9100E20F93002FF9DC01DD0F9106E69C
:1006CC000F93002FF3DCFBDC0F910FE60F93002F41
:1006DC00EDDCF5DC0F910FE60F93002FE7DCEFDC80
:1006EC000F9104E60F93002FE1DCE9DC0F910895E4
:1006FC000F931F932F9311272227FCDC00910202EA
:10070C000A3014F40C948E0313950A500A30E4F753
:10071C00105D0F93012FCADCD2DC0F911127005D05
:10072C000F93002FC3DCCBDC0F911127213061F02C
:10073C001AE30F93012FBADCC2DC0F910091030274
:10074C00239511270C9486032F911F910F910895D7
:00000001FF
