:020000020000FC
:100000000C9407000C9406000C94060018954FEF12
:100010004DBF41E24EBF40EF40930A016FEF6DBF0D
:1000200061E26EBF6FEF60BB61B9662761BB62B909
:1000300068E3F5D004D11DD168E3F1D000D110D12F
:1000400068E3EDD0FCD068E3EAD0F9D068E0E7D00F
:10005000F6D061E0E4D0F3D066E0E1D0F0D06EE01D
:10006000DED0EDD0AA27BB27CC27FF27DD274427EA
:10007000D05DA05D61E0D3D0E2D0FBD062E0CFD014
:10008000DED06D2FD3D0DBD060ECC9D0D8D06A2FB2
:10009000CDD0D5D0D053A0534FEF47B9442748B95E
:1000A0000C94AC004427C1303CF4B1302CF4A130A6
:1000B0001CF461E0B4D0C3D062E0B1D0C0D0ED2F69
:1000C000D43624F4DA306CF4D030A4F44395D4560A
:1000D000D436E4F7405D642FA9D0B1D040E0DA30E7
:1000E00024F04395DA50DA30E4F7405D642F9ED077
:1000F000A6D040E04395DA95D030E4F7415D642F17
:1001000095D09DD04427DE2FF43034F560EC87D0B5
:1001100096D040E2F3301CF064E181D090D0F23010
:100120001CF064E17CD08BD0A05DB05DC05D6A2F17
:100130007DD085D0642F7AD082D0642F77D07FD0C5
:1001400060E16DD07CD060E16AD079D0A053B0532B
:10015000C053D8B90C94AC003FEE11271430E1F332
:1001600030930B014FEF4A95F1F7409109014F7021
:100170004F3059F021E00027043039F0542F52233A
:1001800041F00395220F0C94BC00330F13950C948F
:10019000AE00133049F0033089F1402F440F400F77
:1001A000410F4F5F0C940701EE27013089F00230B8
:1001B000E1F00330E1F0DA0FEB2FEA95D64FE030B3
:1001C000E1F7EC2FEA95DC49E030E1F70C94F70019
:1001D000DA1BEB2FEA95DA40E030E1F7EC2FEA95F5
:1001E000D446E030E1F70C94F7000C94F700AA270E
:1001F000BB27CC27FF274ED00C945200103021F0A3
:10020000113021F00C9452000C9407004427CB2F9E
:10021000BA2FA42FF39544273DD00C94520061BB14
:100220001FD0169A1DD016981BD0089561BB179A3F
:1002300017D0169A15D0169813D0179808956F9363
:10024000662760BB61BB159A0BD0169A09D06FB1B7
:10025000169867FDF9CF15986FEF60BB6F91089501
:100260008F939F939FE08CE90197F1F79F918F9176
:100270000895F6DFF5DFF4DFF3DFF2DF0895F9DF4D
:10028000F8DFF7DFF6DF0895FADFF9DFF8DFF7DFF1
:10029000F6DF0895F9DFF8DFF7DFF6DFF5DF189511
:00000001FF
